:020000040000FA
:100000000C9463000C948B000C948B000C9494045F
:100010000C9494040C9494040C948B000C948B001A
:100020000C948B000C948B000C948B000C94D803D4
:100030000C948B000C948B000C948B000C948B0014
:100040000C9436030C948B000C94A6030C94800340
:100050000C948B000C948B000C948B000C948B00F4
:100060000C948B000C948B000000000024002700EF
:100070002A0000000008000201000003040700003D
:1000800000000000000000000000230026002900FE
:1000900000000000250028002B00040404040404D0
:1000A0000404020202020202030303030303010227
:1000B00004081020408001020408102001020408F6
:1000C00010200C050F0811241FBECFEFD8E0DEBFB3
:1000D000CDBF11E0A0E0B1E0EAE5F1E102C005909A
:1000E0000D92A632B107D9F722E0A6E2B1E001C035
:1000F0001D92A935B207E1F710E0C2E6D0E004C0D6
:100100002197FE010E949A08C136D107C9F70E94C3
:10011000D1050C94A0080C940000833081F028F4E1
:10012000813099F08230A9F008958730A9F08830A5
:10013000C9F08430B1F4809180008F7D03C080913C
:1001400080008F7780938000089584B58F7784BD79
:10015000089584B58F7DFBCF8091B0008F77809319
:10016000B00008958091B0008F7DF9CF1F93CF9399
:10017000DF93282F30E0F901EE58FF4F8491F90109
:10018000E255FF4FD491F901E656FF4FC491CC23BD
:10019000A9F0162F81110E948D00EC2FF0E0EE0FD8
:1001A000FF1FE057FF4FA591B4918FB7F894EC91E2
:1001B000111108C0D095DE23DC938FBFDF91CF9162
:1001C0001F910895DE2BF8CFCF93DF9390E0FC01D1
:1001D000E255FF4F249186569F4FFC01849188235E
:1001E000C9F090E0880F991FFC01E859FF4FA591D5
:1001F000B491FC01E057FF4FC591D49161110DC03E
:100200009FB7F8948C91209582238C938881282322
:1002100028839FBFDF91CF910895623051F49FB73B
:10022000F8943C91822F809583238C93E8812E2B28
:10023000EFCF8FB7F894EC912E2B2C938FBFEACF92
:100240003FB7F8948091710190917201A091730170
:10025000B091740126B5A89B05C02F3F19F00196F7
:10026000A11DB11D3FBFBA2FA92F982F8827BC0110
:10027000CD01620F711D811D911D42E0660F771F38
:10028000881F991F4A95D1F708958F929F92AF9238
:10029000BF92CF92DF92EF92FF920E9420014B011A
:1002A0005C0182E3C82ED12CE12CF12C0E942001AC
:1002B000681979098A099B09683E7340810591058F
:1002C000A8F321E0C21AD108E108F10888EE880EEF
:1002D00083E0981EA11CB11CC114D104E104F104F7
:1002E00029F7FF90EF90DF90CF90BF90AF909F9055
:1002F0008F900895AF92BF92CF92DF92EF92FF92CC
:100300000F931F93CF93DF936C017B018B01040F3D
:10031000151FEB015E01AE18BF08C017D10759F0D9
:100320006991D601ED91FC910190F081E02DC6011B
:100330000995892B79F7C501DF91CF911F910F9115
:10034000FF90EF90DF90CF90BF90AF900895FC01A9
:10035000538D448D252F30E0842F90E0821B930B2A
:10036000541710F0CF96089501970895FC01918DD0
:10037000828D981761F0A28DAE0FBF2FB11D5D96D3
:100380008C91928D9F5F9F73928F90E008958FEF75
:100390009FEF0895FC01918D828D981731F0828D29
:1003A000E80FF11D858D90E008958FEF9FEF089580
:1003B000FC01918D228D892F90E0805C9F4F821BE4
:1003C00091098F739927089585E791E00E94D801DC
:1003D00021E0892B09F420E0822F089580E090E04D
:1003E000892B29F00E94E40181110C9400000895EA
:1003F000FC01A48DA80FB92FB11DA35ABF4F2C919A
:10040000848D90E001968F739927848FA689B78990
:100410002C93A089B1898C91837080648C93938D87
:10042000848D981306C00288F389E02D80818F7D2A
:1004300080830895EF92FF920F931F93CF93DF93E2
:10044000EC0181E0888F9B8D8C8D98131AC0E88910
:10045000F989808185FF15C09FB7F894EE89FF89DF
:100460006083E889F98980818370806480839FBF7D
:1004700081E090E0DF91CF911F910F91FF90EF907D
:100480000895F62E0B8D10E00F5F1F4F0F7311278D
:10049000E02E8C8D8E110CC00FB607FCFACFE889C8
:1004A000F989808185FFF5CFCE010E94F801F1CF57
:1004B000EB8DEC0FFD2FF11DE35AFF4FF0829FB73C
:1004C000F8940B8FEA89FB8980818062CFCFCF932C
:1004D000DF93EC01888D8823B9F0AA89BB89E8896C
:1004E000F9898C9185FD03C0808186FD0DC00FB612
:1004F00007FCF7CF8C9185FFF2CF808185FFEDCF90
:10050000CE010E94F801E9CFDF91CF9108952091AB
:10051000690130916A012817390771F490916701D8
:1005200080916801981741F0E0916701F0E0EA5D81
:10053000FE4F808190E008958FEF9FEF089508951A
:10054000EF92FF920F931F93CF93DF93DC015C96A2
:10055000ED90FC905D97E114F10479F481E090E076
:1005600013969C938E93129790E080E0DF91CF9149
:100570001F910F91FF90EF9008955196ED91FC918E
:10058000529750968C915097982F90950FB75E96F2
:100590002C915E97122F127021FD6095F8942081A6
:1005A000112319F1282B2083E7012197F1F728E087
:1005B000462F50E0308160FF1AC0382B3083E701AE
:1005C0002197F1F7BA0175956795215089F71123A5
:1005D00081F08081892380830FBF5C968D919C91EF
:1005E0000197F1F781E090E0C1CF2923DCCF3923D7
:1005F000E5CF9081892BEFCF2091690130916A017D
:100600002817390761F4809168012091670190E013
:10061000805C9F4F821B91098F739927089590E00A
:1006200080E008952091690130916A012817390707
:10063000B9F49091670180916801981789F0E09171
:100640006701F0E0EA5DFE4F80812091670130E0B4
:100650002F5F3F4F2F7333272093670190E008955A
:100660008FEF9FEF089590E080E008951F920F9222
:100670000FB60F9211242F933F938F939F93AF93B5
:10068000BF9380916D0190916E01A0916F01B09127
:10069000700130916C0123E0230F2D3758F501963E
:1006A000A11DB11D20936C0180936D0190936E018B
:1006B000A0936F01B09370018091710190917201CC
:1006C000A0917301B09174010196A11DB11D809399
:1006D000710190937201A0937301B0937401BF9163
:1006E000AF919F918F913F912F910F900FBE0F90DF
:1006F0001F90189526E8230F0296A11DB11DD2CF99
:100700001F920F920FB60F9211242F933F934F9386
:100710005F936F937F938F939F93AF93BF93EF9369
:10072000FF9385E791E00E94F801FF91EF91BF915F
:10073000AF919F918F917F916F915F914F913F9179
:100740002F910F900FBE0F901F9018951F920F9230
:100750000FB60F9211242F938F939F93EF93FF93D4
:10076000E0918501F09186018081E0918B01F0910B
:100770008C0182FD1BC0908180918E018F5F8F73F1
:1007800020918F01821741F0E0918E01F0E0EB584B
:10079000FE4F958F80938E01FF91EF919F918F91E6
:1007A0002F910F900FBE0F901F9018958081F4CF5E
:1007B0001F920F920FB60F9211242F933F934F93D6
:1007C0005F936F937F938F939F93AF93BF93CF93D9
:1007D000DF93EF93FF9380916601C0913602D0E0E2
:1007E00087FF24C0109285001092840080916601DA
:1007F0008F5F8093660180916601082E000C990B33
:100800008C179D0724F4809166018C30C4F180918F
:10081000840090918500049680349C4908F47AC045
:100820008091840090918500049676C08091660145
:10083000082E000C990B8C179D07C4F6E0916601F9
:100840008E2FEE0F990BFC01EE0FFF1FE80FF91F23
:10085000EE5EFD4F808186FFC9CFE09166018E2F4D
:10086000EE0F990BFC01EE0FFF1FE80FF91FEE5E74
:10087000FD4F808160E08F730E94B600B7CF20915A
:10088000840030918500E09166018E2FEE0F990B68
:10089000FC01EE0FFF1FE80FF91FEE5EFD4F818197
:1008A0009281820F931F9093890080938800E0913A
:1008B00066018E2FEE0F990BFC01EE0FFF1FE80F64
:1008C000F91FEE5EFD4F808186FF11C0E091660149
:1008D0008E2FEE0F990BFC01EE0FFF1FE80FF91F93
:1008E000EE5EFD4F808161E08F730E94B600FF9144
:1008F000EF91DF91CF91BF91AF919F918F917F91B8
:100900006F915F914F913F912F910F900FBE0F907C
:100910001F90189580E49CE990938900809388004B
:100920008FEF80936601E3CF1F920F920FB60F9265
:1009300011242F933F934F935F936F937F938F93E4
:100940009F93AF93BF93EF93FF93E0916901F09171
:100950006A01309749F0A685B7858585968D91FF08
:1009600014C09C918923A1F4FF91EF91BF91AF91A5
:100970009F918F917F916F915F914F913F912F91B7
:100980000F900FBE0F901F9018959C91892361F7CF
:10099000A389B4899C918589809589238C938689C4
:1009A00097890197F1F7608D718DA685B78555857B
:1009B00038E020E0CB010197F1F7822F90E0959588
:1009C0008795282F4C91452309F02068315091F7E5
:1009D000868D81FD20958091680190E001968F734E
:1009E000992730916701381799F0A0916801B0E01C
:1009F000AA5DBE4F2C9380936801828D938D0197E1
:100A0000F1F7A389B4898C919589892B8C93ACCF0C
:100A1000868D8160868FF1CF1092780110927701D8
:100A200088EE93E0A0E0B0E08093790190937A01A2
:100A3000A0937B01B0937C0125E031E030937601F7
:100A40002093750125EC30E03093820120938101E1
:100A500024EC30E0309384012093830120EC30E0DB
:100A6000309386012093850121EC30E0309388019A
:100A70002093870122EC30E030938A012093890192
:100A800026EC30E030938C0120938B0110928E0184
:100A900010928F01109290011092910110923D02DC
:100AA00010923C0280933E0290933F02A09340023A
:100AB000B093410287E191E090933B0280933A0228
:100AC0001092510210925002109253021092520250
:100AD0001092550210925402109257021092560230
:100AE000609158026E7F6D7F6093580266956170C9
:100AF00081E0682783E00E94B60061E083E00E9405
:100B0000E400E1EBF0E0E491E0934A02EDE9F0E08B
:100B1000E491F0E0EE0FFF1FE057FF4F85919491B5
:100B200090934C0280934B0260E082E00E94E400CC
:100B30008091580281FD04C061E082E00E94B6000D
:100B400082E080934602E0EBF0E0E491E09347021C
:100B5000ECE9F0E0E491F0E0EE0FFF1FEA57FF4F01
:100B60008591949190934902809348028091360236
:100B70008C3098F491E0980F90933602809337026E
:100B800090E0FC01EE0FFF1FE80FF91FEE5EFD4F36
:100B900088EB9BE09283818308958FEF80933702E7
:100BA0000895789484B5826084BD84B5816084BDE5
:100BB00085B5826085BD85B5816085BD80916E00FB
:100BC000816080936E00109281008091810082602C
:100BD0008093810080918100816080938100809169
:100BE00080008160809380008091B1008460809358
:100BF000B1008091B00081608093B00080917A0054
:100C0000846080937A0080917A00826080937A0079
:100C100080917A00816080937A0080917A00806868
:100C200080937A001092C100809137028C3008F0D6
:100C300051C061E089E00E94E40080913702282FD2
:100C400030E0F901EE0FFF1FE20FF31FEE5EFD4FE4
:100C50009081907C996090831092380210923902B2
:100C60002CE0622F0E948E08829FB001112430E098
:100C700020E0AB01420F531FFA01EE0FFF1FE40FFC
:100C8000F51FEE5EFD4F908196FD16C02F5F3F4F22
:100C90002C30310571F781110FC01092800082E075
:100CA000809381001092850010928400B19A809107
:100CB0006F00826080936F00E09137028E2F90E08A
:100CC000FC01EE0FFF1FE80FF91FEE5EFD4F808164
:100CD00080648083E0918501F091860182E08083C9
:100CE000E0918101F09182011082E0918301F09105
:100CF00084018FEC808310928D01E0918901F09145
:100D00008A0186E08083E0918701F09188018081EB
:100D100080618083E0918701F09188018081886003
:100D20008083E0918701F0918801808180688083D1
:100D3000E0918701F091880180818F7D80831092FE
:100D400055021092540210925302109252021092C5
:100D50005102109250028DE991E0909357028093D6
:100D6000560290914602963108F047C02DEB30E0D4
:100D700030935102209350022BE931E0309353021B
:100D8000209352022CE231E030935502209354021A
:100D90002091680084E0983048F031E09E3008F4FB
:100DA00030E081E001C0880F3A95EAF7822B80930A
:100DB00068002DE630E0983050F02BE630E09E30B1
:100DC00030F02CE630E0963110F030E020E0309347
:100DD0004E0220934D02292F30E0983008F010C1C8
:100DE00081E001C0880F9A95EAF780934F028091C5
:100DF0005602909157020197F1F780915402909119
:100E00005502892B49F1E0916901F0916A0122E0D4
:100E1000EA33F20709F1309739F0A389B4899C913C
:100E20008589809589238C93809158028E7F809349
:100E3000580210926801109267018AE392E0909341
:100E40006A0180936901E0914D02F0914E02808128
:100E500090914F02892B808362E085E00E94E4003C
:100E6000C8E8D0E008E512E044EB842E912CA12CD8
:100E7000B12C23EB222E20E0322E3FE9C32E30E0AE
:100E8000D32E90E0E92E90E0F92EE7E7F0E0849190
:100E9000F1017490F6016490662009F4BEC08111DE
:100EA0000E948D00E62DF0E0EE0FFF1FEA57FF4F86
:100EB000A591B4918C91782281E009F480E0782E9C
:100EC00081110AC080910001813031F490916B0151
:100ED000911180E080936B0160916B018AE392E055
:100EE0000E94A002709200018AE392E00E94FC023C
:100EF000181619060CF076C08AE392E00E941203DD
:100F00008032F2E09F07CCF5209138022E01421A80
:100F1000510827FD5394440C551C440C551C052CBA
:100F2000000C6608770820913902A801421B51097C
:100F300027FD53959A01220F331F220F331F032ED3
:100F4000000C440B550B2419350946095709DC01DF
:100F5000853B910514F0A4EBB0E0B7FF02C0B0E010
:100F6000A0E00E945508A50194010E942B08DA0117
:100F7000C901840D951DA61DB71D409137024C3047
:100F800078F520913802BE01621B710927FD739527
:100F9000660F771F660F771F861797077CF02091E3
:100FA0003902B801621B710927FD7395660F771F1F
:100FB000660F771F861797070CF4BC01CB010297C9
:100FC000880F991F6FB7F89450E09A01220F331FD2
:100FD000240F351FF901EE5EFD4F928381836FBFB1
:100FE0000E9445010E944501E114F10409F44DCF2E
:100FF0000E94E401882309F444CF0E94000039CF05
:101000009E3040F42850310981E001C0880F2A95B4
:10101000EAF7EBCE2E503109F7CF712C53CF87E191
:1010200091E090933B0280933A0280916901909104
:101030006A018A53924071F4E0914D02F0914E02A0
:10104000908180914F0280958923808310926A015C
:10105000109269010895052E97FB1EF400940E94DA
:10106000420857FD07D00E945D0807FC03D04EF4EC
:101070000C94420850954095309521953F4F4F4F25
:101080005F4F089590958095709561957F4F8F4F34
:101090009F4F08950E947F08A59F900DB49F900DCB
:1010A000A49F800D911D11240895B7FF0C944A0848
:1010B0000E944A08821B930B0895A1E21A2EAA1BD4
:1010C000BB1BFD010DC0AA1FBB1FEE1FFF1FA217F8
:1010D000B307E407F50720F0A21BB30BE40BF50BF5
:1010E000661F771F881F991F1A9469F7609570957E
:1010F000809590959B01AC01BD01CF010895A29F01
:10110000B001B39FC001A39F700D811D1124911DDB
:10111000B29F700D811D1124911D0895991B79E0D6
:1011200004C0991F961708F0961B881F7A95C9F777
:1011300080950895EE0FFF1F0590F491E02D09941E
:1011400010E0C2E6D0E004C0FE010E949A08219699
:10115000C336D107C9F7F894FFCF01000000001A89
:10116000027A01A7016702D801B601CA0100000096
:1011700000A0027A0133039F02FC021203870200DF
:107E0000112484B714BE81FFF0D085E080938100F7
:107E100082E08093C00088E18093C10086E0809377
:107E2000C20080E18093C4008EE0C9D0259A86E02C
:107E300020E33CEF91E0309385002093840096BBD3
:107E4000B09BFECF1D9AA8958150A9F7CC24DD24C4
:107E500088248394B5E0AB2EA1E19A2EF3E0BF2EE7
:107E6000A2D0813461F49FD0082FAFD0023811F036
:107E7000013811F484E001C083E08DD089C08234E0
:107E800011F484E103C0853419F485E0A6D080C0E4
:107E9000853579F488D0E82EFF2485D0082F10E0AE
:107EA000102F00270E291F29000F111F8ED06801E7
:107EB0006FC0863521F484E090D080E0DECF843638
:107EC00009F040C070D06FD0082F6DD080E0C81688
:107ED00080E7D80618F4F601B7BEE895C0E0D1E017
:107EE00062D089930C17E1F7F0E0CF16F0E7DF06D8
:107EF00018F0F601B7BEE89568D007B600FCFDCFD4
:107F0000A601A0E0B1E02C9130E011968C91119780
:107F100090E0982F8827822B932B1296FA010C0160
:107F200087BEE89511244E5F5F4FF1E0A038BF0790
:107F300051F7F601A7BEE89507B600FCFDCF97BE46
:107F4000E89526C08437B1F42ED02DD0F82E2BD052
:107F50003CD0F601EF2C8F010F5F1F4F84911BD097
:107F6000EA94F801C1F70894C11CD11CFA94CF0C13
:107F7000D11C0EC0853739F428D08EE10CD085E9AC
:107F80000AD08FE07ACF813511F488E018D01DD067
:107F900080E101D065CF982F8091C00085FFFCCF94
:107FA0009093C60008958091C00087FFFCCF809118
:107FB000C00084FD01C0A8958091C6000895E0E648
:107FC000F0E098E1908380830895EDDF803219F02E
:107FD00088E0F5DFFFCF84E1DECF1F93182FE3DFCA
:107FE0001150E9F7F2DF1F91089580E0E8DFEE27F6
:047FF000FF270994CA
:027FFE00040479
:00000001FF
