:020000040000FA
:100000000C9463000C948B000C948B000C94C20332
:100010000C94C2030C94C2030C948B000C948B00C0
:100020000C948B000C948B000C948B000C948B0024
:100030000C948B000C948B000C948B000C948B0014
:100040000C9420030C948B000C9490030C946A0382
:100050000C948B000C948B000C948B000C948B00F4
:100060000C948B000C948B000000000024002700EF
:100070002A0000000008000201000003040700003D
:1000800000000000000000000000230026002900FE
:1000900000000000250028002B00040404040404D0
:1000A0000404020202020202030303030303010227
:1000B00004081020408001020408102001020408F6
:1000C00010203A043D0611241FBECFEFD8E0DEBF5A
:1000D000CDBF11E0A0E0B1E0E6E8FDE002C0059090
:1000E0000D92A432B107D9F722E0A4E2B1E001C039
:1000F0001D92AD32B207E1F710E0C2E6D0E004C0D5
:100100002197FE010E94B006C136D107C9F70E94AF
:10011000E5040C94B6060C94000090E0FC01EE5847
:10012000FF4F2491FC01E255FF4F3491FC01E6564C
:10013000FF4FE491EE23C9F0222339F0233001F17F
:10014000A8F4213019F1223029F1F0E0EE0FFF1F61
:10015000E057FF4FA591B4918FB7F894EC916111DE
:1001600026C030953E233C938FBF08952730A9F0D9
:100170002830C9F0243049F7809180008F7D03C07A
:10018000809180008F7780938000DFCF84B58F7758
:1001900084BDDBCF84B58F7DFBCF8091B0008F779E
:1001A0008093B000D2CF8091B0008F7DF9CF3E2BED
:1001B000DACFCF93DF9390E0FC01E255FF4F24911B
:1001C00086569F4FFC0184918823D1F090E0880FE0
:1001D000991FFC01E859FF4FA591B491FC01E0572C
:1001E000FF4FC591D49161110EC09FB7F8948C91C7
:1001F000E22FE0958E238C932881E223E8839FBF32
:10020000DF91CF9108958FB7F894EC91E22BEC93A6
:100210008FBFF6CF3FB7F89480916D0190916E013A
:10022000A0916F01B091700126B5A89B05C02F3F2A
:1002300019F00196A11DB11D3FBFBA2FA92F982F0C
:100240008827BC01CD01620F711D811D911D42E007
:10025000660F771F881F991F4A95D1F708958F92CF
:100260009F92AF92BF92CF92DF92EF92FF920E9445
:100270000A014B015C0182E3C82ED12CE12CF12C48
:100280000E940A01681979098A099B09683E73402E
:1002900081059105A8F321E0C21AD108E108F1080F
:1002A00088EE880E83E0981EA11CB11CC114D104F5
:1002B000E104F10429F7FF90EF90DF90CF90BF9019
:1002C000AF909F908F900895AF92BF92CF92DF92A0
:1002D000EF92FF920F931F93CF93DF936C017B01FB
:1002E0008B01040F151FEB015E01AE18BF08C0178C
:1002F000D10759F06991D601ED91FC910190F081FF
:10030000E02DC6010995892B79F7C501DF91CF91C1
:100310001F910F91FF90EF90DF90CF90BF90AF9023
:100320000895FC01538D448D252F30E0842F90E0FB
:10033000821B930B541710F0CF96089501970895E0
:10034000FC01918D828D981761F0A28DAE0FBF2FA9
:10035000B11D5D968C91928D9F5F9F73928F90E0FF
:1003600008958FEF9FEF0895FC01918D828D98176E
:1003700031F0828DE80FF11D858D90E008958FEFAB
:100380009FEF0895FC01918D228D892F90E0805C74
:100390009F4F821B91098F739927089581E791E000
:1003A0000E94C20121E0892B09F420E0822F0895E8
:1003B00080E090E0892B29F00E94CE0181110C94FD
:1003C00000000895FC01A48DA80FB92FB11DA35AF8
:1003D000BF4F2C91848D90E001968F739927848F65
:1003E000A689B7892C93A089B1898C918370806488
:1003F0008C93938D848D981306C00288F389E02D29
:1004000080818F7D80830895EF92FF920F931F93D9
:10041000CF93DF93EC0181E0888F9B8D8C8D9813B7
:100420001AC0E889F989808185FF15C09FB7F894C3
:10043000EE89FF896083E889F9898081837080640F
:1004400080839FBF81E090E0DF91CF911F910F915A
:10045000FF90EF900895F62E0B8D10E00F5F1F4F69
:100460000F731127E02E8C8D8E110CC00FB607FC78
:10047000FACFE889F989808185FFF5CFCE010E9406
:10048000E201F1CFEB8DEC0FFD2FF11DE35AFF4F91
:10049000F0829FB7F8940B8FEA89FB898081806294
:1004A000CFCFCF93DF93EC01888D8823B9F0AA8951
:1004B000BB89E889F9898C9185FD03C0808186FD1F
:1004C0000DC00FB607FCF7CF8C9185FFF2CF80816E
:1004D00085FFEDCFCE010E94E201E9CFDF91CF9100
:1004E000089520916601309167012817390771F44A
:1004F0009091640180916501981741F0E091640149
:10050000F0E0EC5DFE4F808190E008958FEF9FEF6B
:1005100008950895EF92FF920F931F93CF93DF9367
:10052000DC015C96ED90FC905D97E114F10479F4A8
:1005300081E090E013969C938E93129790E080E078
:10054000DF91CF911F910F91FF90EF9008955196F9
:10055000ED91FC91529750968C915097982F9095D1
:100560000FB75E962C915E97122F127021FD609549
:10057000F8942081112319F1282B2083E70121977A
:10058000F1F728E0462F50E0308160FF1AC0382B89
:100590003083E7012197F1F7BA01759567952150EE
:1005A00089F7112381F08081892380830FBF5C96B6
:1005B0008D919C910197F1F781E090E0C1CF2923C3
:1005C000DCCF3923E5CF9081892BEFCF20916601D5
:1005D000309167012817390761F4809165012091F6
:1005E000640190E0805C9F4F821B91098F73992773
:1005F000089590E080E008952091660130916701B0
:1006000028173907B9F49091640180916501981712
:1006100089F0E0916401F0E0EC5DFE4F8081209173
:10062000640130E02F5F3F4F2F7333272093640125
:1006300090E008958FEF9FEF089590E080E0089597
:100640001F920F920FB60F9211242F933F938F9307
:100650009F93AF93BF938091690190916A01A0919C
:100660006B01B0916C013091680123E0230F2D37AD
:1006700058F50196A11DB11D209368018093690171
:1006800090936A01A0936B01B0936C0180916D010E
:1006900090916E01A0916F01B09170010196A11D22
:1006A000B11D80936D0190936E01A0936F01B09383
:1006B0007001BF91AF919F918F913F912F910F90BA
:1006C0000FBE0F901F90189526E8230F0296A11DCC
:1006D000B11DD2CF1F920F920FB60F9211242F93FC
:1006E0003F934F935F936F937F938F939F93AF93BA
:1006F000BF93EF93FF9381E791E00E94E201FF91A6
:10070000EF91BF91AF919F918F917F916F915F9189
:100710004F913F912F910F900FBE0F901F90189502
:100720001F920F920FB60F9211242F938F939F93C6
:10073000EF93FF93E0918101F09182018081E0913C
:100740008701F091880182FD1BC0908180918A0110
:100750008F5F8F7320918B01821741F0E0918A01A6
:10076000F0E0EF58FE4F958F80938A01FF91EF9153
:100770009F918F912F910F900FBE0F901F90189502
:100780008081F4CF1F920F920FB60F9211242F93F6
:100790003F934F935F936F937F938F939F93AF9309
:1007A000BF93EF93FF93E0916601F091670130975B
:1007B00049F0A685B7858585968D91FF14C09C91DB
:1007C0008923A1F4FF91EF91BF91AF919F918F91F8
:1007D0007F916F915F914F913F912F910F900FBE3D
:1007E0000F901F9018959C91892361F7A389B48974
:1007F0009C918589809589238C9386899789019717
:10080000F1F7608D718DA685B785558538E020E0BC
:10081000CB010197F1F7822F90E095958795282FCE
:100820004C91452309F02068315091F7868D81FD68
:1008300020958091650190E001968F739927309102
:100840006401381799F0A0916501B0E0AC5DBE4F2E
:100850002C9380936501828D938D0197F1F7A38985
:10086000B4898C919589892B8C93ACCF868D8160CE
:10087000868FF1CF109274011092730188EE93E08D
:10088000A0E0B0E08093750190937601A09377018A
:10089000B093780124E031E030937201209371012C
:1008A00025EC30E030937E0120937D0124EC30E094
:1008B0003093800120937F0120EC30E0309382015F
:1008C0002093810121EC30E0309384012093830157
:1008D00022EC30E0309386012093850126EC30E055
:1008E000309388012093870110928A0110928B0126
:1008F00010928C0110928D01109211021092100230
:100900008093120290931302A0931402B0931502E5
:1009100086E191E090930F0280930E0210922502DF
:10092000109224021092270210922602109229029D
:100930001092280210922B0210922A0260912C022F
:100940006E7F6D7F60932C026695617081E06827F1
:1009500083E00E948D0061E083E00E94D900E1EB1A
:10096000F0E0E491E0931E02EDE9F0E0E491F0E0C4
:10097000EE0FFF1FE057FF4F859194919093200257
:1009800080931F0260E082E00E94D90080912C02D7
:1009900081FD04C061E082E00E948D0082E08093CE
:1009A0001A02E0EBF0E0E491E0931B02ECE9F0E0E6
:1009B000E491F0E0EE0FFF1FEA57FF4F859194910D
:1009C00090931D0280931C020895789484B58260F0
:1009D00084BD84B5816084BD85B5826085BD85B5E3
:1009E000816085BD80916E00816080936E00109261
:1009F00081008091810082608093810080918100DC
:100A0000816080938100809180008160809380006C
:100A10008091B10084608093B1008091B0008160CA
:100A20008093B00080917A00846080937A008091F6
:100A30007A00826080937A0080917A00816080934E
:100A40007A0080917A00806880937A001092C100C9
:100A5000E0918101F091820182E08083E0917D014B
:100A6000F0917E011082E0917F01F09180018FEC86
:100A7000808310928901E0918501F091860186E0E2
:100A80008083E0918301F091840180818061808383
:100A9000E0918301F0918401808188608083E091FE
:100AA0008301F0918401808180688083E0918301DB
:100AB000F091840180818F7D8083109229021092B1
:100AC00028021092270210922602109225021092FC
:100AD00024028DE991E090932B0280932A02909159
:100AE0001A02963108F047C02DEB30E03093250212
:100AF000209324022BE931E0309327022093260231
:100B00002CE231E0309329022093280220916800E2
:100B100084E0983048F031E09E3008F430E081E025
:100B200001C0880F3A95EAF7822B809368002DE682
:100B300030E0983050F02BE630E09E3030F02CE67C
:100B400030E0963110F030E020E030932202209324
:100B50002102292F30E0983008F082C081E001C0E6
:100B6000880F9A95EAF78093230280912A02909148
:100B70002B020197F1F78091280290912902892B8D
:100B800049F1E0916601F091670182E0EE30F807EB
:100B900009F1309739F0A389B4899C9185898095B2
:100BA00089238C9380912C028E7F80932C0210924B
:100BB0006501109264018EE092E09093670180934A
:100BC0006601E0912102F09122028081909123023E
:100BD000892B808361E08CE00E94D900C0E4CC24A2
:100BE000CA9483E0D82EE12CF12C00E010E0C093F1
:100BF0007C0080917A00806480937A0080917A00F2
:100C000086FDFCCFA0917800B091790024EB30E014
:100C10000E94A906A70196010E945906622F8EE044
:100C200092E00E948A028EE092E00E94E60218168C
:100C3000190654F48EE092E00E94FC02682F8CE0CA
:100C40000E948D000E942F010E942F0101151105A5
:100C500071F20E94CE01882351F20E940000C7CF9A
:100C60009E3040F42850310981E001C0880F2A9558
:100C7000EAF779CF2E503109F7CF86E191E09093D2
:100C80000F0280930E0280916601909167018E5051
:100C9000924071F4E0912102F091220290818091C2
:100CA0002302809589238083109267011092660148
:100CB0000895052E97FB1EF400940E94700657FDC0
:100CC00007D00E94780607FC03D04EF40C947006FF
:100CD00050954095309521953F4F4F4F5F4F089568
:100CE00090958095709561957F4F8F4F9F4F089598
:100CF000A1E21A2EAA1BBB1BFD010DC0AA1FBB1F20
:100D0000EE1FFF1FA217B307E407F50720F0A21B91
:100D1000B30BE40BF50B661F771F881F991F1A94FE
:100D200069F760957095809590959B01AC01BD0128
:100D3000CF010895A29FB001B39FC001A39F700D82
:100D4000811D1124911DB29F700D811D1124911DD3
:100D500008950E949A06B7FF0895821B930B089589
:100D6000EE0FFF1F0590F491E02D099410E0C2E60C
:100D7000D0E004C0FE010E94B0062196C336D10720
:100D8000C9F7F894FFCF000000000402640191014C
:100D90005102C201A001B401000000008A026401F6
:0A0DA0001D038902E602FC02710245
:107E0000112484B714BE81FFF0D085E080938100F7
:107E100082E08093C00088E18093C10086E0809377
:107E2000C20080E18093C4008EE0C9D0259A86E02C
:107E300020E33CEF91E0309385002093840096BBD3
:107E4000B09BFECF1D9AA8958150A9F7CC24DD24C4
:107E500088248394B5E0AB2EA1E19A2EF3E0BF2EE7
:107E6000A2D0813461F49FD0082FAFD0023811F036
:107E7000013811F484E001C083E08DD089C08234E0
:107E800011F484E103C0853419F485E0A6D080C0E4
:107E9000853579F488D0E82EFF2485D0082F10E0AE
:107EA000102F00270E291F29000F111F8ED06801E7
:107EB0006FC0863521F484E090D080E0DECF843638
:107EC00009F040C070D06FD0082F6DD080E0C81688
:107ED00080E7D80618F4F601B7BEE895C0E0D1E017
:107EE00062D089930C17E1F7F0E0CF16F0E7DF06D8
:107EF00018F0F601B7BEE89568D007B600FCFDCFD4
:107F0000A601A0E0B1E02C9130E011968C91119780
:107F100090E0982F8827822B932B1296FA010C0160
:107F200087BEE89511244E5F5F4FF1E0A038BF0790
:107F300051F7F601A7BEE89507B600FCFDCF97BE46
:107F4000E89526C08437B1F42ED02DD0F82E2BD052
:107F50003CD0F601EF2C8F010F5F1F4F84911BD097
:107F6000EA94F801C1F70894C11CD11CFA94CF0C13
:107F7000D11C0EC0853739F428D08EE10CD085E9AC
:107F80000AD08FE07ACF813511F488E018D01DD067
:107F900080E101D065CF982F8091C00085FFFCCF94
:107FA0009093C60008958091C00087FFFCCF809118
:107FB000C00084FD01C0A8958091C6000895E0E648
:107FC000F0E098E1908380830895EDDF803219F02E
:107FD00088E0F5DFFFCF84E1DECF1F93182FE3DFCA
:107FE0001150E9F7F2DF1F91089580E0E8DFEE27F6
:047FF000FF270994CA
:027FFE00040479
:00000001FF
