:100000000C9462000C948A000C948A000C948A0070
:100010000C948A000C948A000C948A000C948A0038
:100020000C948A000C948A000C948A000C94270784
:100030000C948A000C948A000C948A000C948A0018
:100040000C9466050C948A000C94D6050C94B005AB
:100050000C948A000C948A000C948A000C948A00F8
:100060000C9408060C948A0000000000230026006F
:10007000290000000000240027002A0000000000E2
:10008000250028002B0004040404040404040202D4
:100090000202020203030303030301020408102007
:1000A0004080010204081020010204081020000012
:1000B0000008000201000003040700000000000027
:1000C0000000D00711241FBECFEFD8E0DEBFCDBFA8
:1000D00011E0A0E0B1E0E8E3F4E102C005900D9288
:1000E000A833B107D9F722E0A8E3B1E001C01D921F
:1000F000A53DB207E1F710E0C2E6D0E004C02197C9
:10010000FE010E94140AC136D107C9F70E941808DF
:100110000C941A0A0C940000833081F028F481308A
:1001200099F08230A9F008958730A9F08830C9F09D
:100130008430B1F4809180008F7D03C08091800075
:100140008F7780938000089584B58F7784BD08955C
:1001500084B58F7DFBCF8091B0008F778093B00006
:1001600008958091B0008F7DF9CF1F93CF93DF93D7
:10017000282F30E0F901E255FF4F8491F901E6564E
:10018000FF4FD491F901EA57FF4FC491CC23A9F056
:10019000162F81110E948C00EC2FF0E0EE0FFF1F54
:1001A000E458FF4FA591B4918FB7F894EC911111D9
:1001B00008C0D095DE23DC938FBFDF91CF911F91D4
:1001C0000895DE2BF8CFCF93DF9390E0FC01E65645
:1001D000FF4F24918A579F4FFC0184918823D1F0CF
:1001E00090E0880F991FFC01EE58FF4FA591B49144
:1001F000FC01E458FF4FC591D49161110EC09FB727
:10020000F8948C91E22FE0958E238C932881E22341
:10021000E8839FBFDF91CF9108958FB7F894EC9159
:10022000E22BEC938FBFF6CF3FB7F89480911C027E
:1002300090911D02A0911E02B0911F0226B5A89BAD
:1002400005C02F3F19F00196A11DB11D3FBFBA2F68
:10025000A92F982F8827BC01CD01620F711D811D28
:10026000911D42E0660F771F881F991F4A95D1F7AD
:1002700008958F929F92AF92BF92CF92DF92EF92AA
:10028000FF924B015C010E9414016B017C010E94F2
:1002900014016C197D098E099F09683E7340810520
:1002A0009105A8F321E0821A9108A108B10888EE0F
:1002B000C80E83E0D81EE11CF11C81149104A10436
:1002C000B10429F7FF90EF90DF90CF90BF90AF90EF
:1002D0009F908F90089508950895AF92BF92CF9206
:1002E000DF92EF92FF920F931F93CF93DF936C01F6
:1002F0007B018B01040F151FEB015E01AE18BF08D7
:10030000C017D10759F06991D601ED91FC91019088
:10031000F081E02DC6010995892B79F7C501DF91A0
:10032000CF911F910F91FF90EF90DF90CF90BF90F2
:10033000AF900895FC01538D448D252F30E0842F1C
:1003400090E0821B930B541710F0CF9608950197FD
:100350000895FC01918D828D981761F0A28DAE0FEA
:10036000BF2FB11D5D968C91928D9F5F9F73928F71
:1003700090E008958FEF9FEF0895FC01918D828D9D
:10038000981731F0828DE80FF11D858D90E008956A
:100390008FEF9FEF0895FC01918D228D892F90E0C2
:1003A000805C9F4F821B91098F739927089580E28B
:1003B00092E00E94CB0121E0892B09F420E0822FFA
:1003C000089580E090E0892B29F00E94D7018111E7
:1003D0000C9400000895FC01A48DA80FB92FB11D45
:1003E000A35ABF4F2C91848D90E001968F7399276B
:1003F000848FA689B7892C93A089B1898C91837049
:1004000080648C93938D848D981306C00288F38941
:10041000E02D80818F7D80830895EF92FF920F936E
:100420001F93CF93DF93EC0181E0888F9B8D8C8DA0
:1004300098131AC0E889F989808185FF15C09FB794
:10044000F894EE89FF896083E889F9898081837057
:10045000806480839FBF81E090E0DF91CF911F9106
:100460000F91FF90EF900895F62E0B8D10E00F5F27
:100470001F4F0F731127E02E8C8D8E110CC00FB6FD
:1004800007FCFACFE889F989808185FFF5CFCE0195
:100490000E94EB01F1CFEB8DEC0FFD2FF11DE35A24
:1004A000FF4FF0829FB7F8940B8FEA89FB89808118
:1004B0008062CFCFCF93DF93EC01888D8823B9F092
:1004C000AA89BB89E889F9898C9185FD03C080815F
:1004D00086FD0DC00FB607FCF7CF8C9185FFF2CFDC
:1004E000808185FFEDCFCE010E94EB01E9CFDF9146
:1004F000CF9108952091C501260F3327331F213254
:100500003105ECF42091E901FC0190E080E0243019
:1005100069F082E00895A091C5012191AC014B558D
:100520005E4FA40FB52FB11D2C930196861798F33B
:100530008091C501680F6093C50180E0089581E056
:1005400008951092E90181E08093EB011092EA0195
:1005500061E082E10E94B50061E083E10E94B500A4
:10056000E9EBF0E080818E7F808380818D7F8083C6
:1005700088E48093B80085E48093BC000895CF930D
:10058000DF9391E09093A4018823B9F0C091B80063
:10059000D091BA008091BC008A7B8093BC0060E05F
:1005A00082E10E94B50060E083E10E94B5000E94F4
:1005B000A102D093BA00C093B800DF91CF91089503
:1005C0000895E091160280911502E81730F4F0E0EA
:1005D000E158FE4F808190E008958FEF9FEF0895DE
:1005E00090911602809115022FEF3FEF981748F473
:1005F000E92FF0E0E158FE4F208130E09F5F9093BB
:100600001602C90108958091150290911602891B66
:10061000990B0895CF92DF92EF92FF920F931F9361
:10062000CF93DF937C01CB018A0120917E012223AD
:1006300089F0EB016B01C40ED51ECC15DD0569F008
:100640006991D701ED91FC910190F081E02DC701F6
:100650000995F3CF642F0E947A02C801DF91CF91F0
:100660001F910F91FF90EF90DF90CF900895CF935F
:10067000DF931F92CDB7DEB7698320917E012223DD
:10068000F9F020911302203258F021E030E0FC0113
:100690003383228390E080E00F90DF91CF91089523
:1006A00080911402E82FF0E0E25AFE4F9981908386
:1006B0008F5F809314028093130281E090E0ECCF6F
:1006C00061E0CE0101960E947A02F7CFCF92DF92CD
:1006D000EF92FF920F931F93CF93DF93FC01C4819E
:1006E00021E020937E01C0935D01109214021092CC
:1006F00013028385682B8DEB92E00E943703D09123
:100700001302D13208F092C00E9414016B017C01E7
:100710008091E901811165C082E08093E90181E067
:100720008093EB018FEF8093E80110920D02D0933C
:100730000C02AEE5B1E0ECEEF1E080E0D81385C04C
:1007400010920E0280910E02CC0FC82BC0930E02A5
:100750008091EA01813009F07CC01092EA010E9488
:1007600014016B017C0180910E028093BB0080918B
:10077000A0019091A101A091A201B091A301892BA8
:100780008A2B8B2B99F00E9414010091A0011091EB
:10079000A1012091A2013091A3016C197D098E095C
:1007A0009F090617170728073907E0F18091BC0059
:1007B00083FDD9CF85EC8093BC000E9414016B01AE
:1007C0007C018091E901823009F445C08091E80103
:1007D0008F3F61F18091E801803241F18091E80121
:1007E00025C08091A0019091A101A091A201B0919A
:1007F000A301892B8A2B8B2B09F48ACF0E94140129
:100800000091A0011091A1012091A2013091A301BA
:100810006C197D098E099F090617170728073907E4
:1008200008F076CF80919F010E94BF0210921402BF
:100830001092130210927E01DF91CF911F910F91C0
:10084000FF90EF90DF90CF9008959D9191938F5FEF
:1008500075CF85EEB0CF8091A0019091A101A091BC
:10086000A201B091A301892B8A2B8B2B09F4A9CF6C
:100870000E9414010091A0011091A1012091A201F8
:100880003091A3016C197D098E099F09061717077E
:100890002807390708F095CFC5CF089590E080E08C
:1008A00008958F929F92AF92BF920F931F93CF9311
:1008B000DF93CDB7DEB7A1970FB6F894DEBF0FBEBA
:1008C000CDBF19A2423008F44AE08E010F5D1F4FE0
:1008D000842E912CB12CA12CA50194010E94CA094F
:1008E000E62FB901CA01EA3044F5E05DD801EE9384
:1008F0008D01232B242B252B79F790E080E0109796
:1009000069F0FD0101900020E9F73197AF014A1B22
:100910005B0BBD0189EC92E00E946D01A1960FB6C0
:10092000F894DEBF0FBECDBFDF91CF911F910F9125
:10093000BF90AF909F908F900895E95CD7CF0F93B1
:100940001F93CF938C01C62F0E9466036C2F6460A7
:10095000C8010E9466036C2F6B7FC8010E9466036A
:1009600083EC90E00197F1F7CF911F910F910895DB
:100970000F931F93CF93DF938C01D62FC42F607FEB
:10098000642B0E949F0480E1D89FB00111246C2B3E
:10099000C801DF91CF911F910F910C949F04CF93C9
:1009A000DF93CDB7DEB728970FB6F894DEBF0FBE42
:1009B000CDBF98E0E0E0F1E0DE01119601900D92EC
:1009C0009A95E1F79091D102961708F46FEF262FD0
:1009D00030E0220F331F41E050E04C0F5D1F240F29
:1009E000351FF9016081680F606840E089EC92E092
:1009F00028960FB6F894DEBF0FBECDBFDF91CF9122
:100A00000C94B80441E00E94B80481E090E008959D
:100A1000CF92DF92EF92FF926B017C0141E06DE299
:100A200089EC92E00E94B80466277727CB016C1905
:100A30007D098E099F094AE00E9451040196FF90AA
:100A4000EF90DF90CF900895BC01990F880B990B20
:100A500097FD0C9408054AE00C94510485ED8093B1
:100A6000BC008091A0019091A101A091A201B09140
:100A7000A3010796A11DB11D23E0B695A7959795F3
:100A800087952A95D1F72091BC0024FD03C01092D0
:100A9000E90108954091A0015091A1016091A20146
:100AA0007091A301452B462B472B69F30097A105B5
:100AB000B10541F02AE22A95F1F700C00197A1099A
:100AC000B109E1CF80919F010C94BF021F920F9258
:100AD0000FB60F9211242F933F938F939F93AF9351
:100AE000BF938091180290911902A0911A02B091BF
:100AF0001B023091170223E0230F2D3758F5019682
:100B0000A11DB11D20931702809318029093190222
:100B1000A0931A02B0931B0280911C0290911D02B7
:100B2000A0911E02B0911F020196A11DB11D8093DC
:100B30001C0290931D02A0931E02B0931F02BF914E
:100B4000AF919F918F913F912F910F900FBE0F907A
:100B50001F90189526E8230F0296A11DB11DD2CF34
:100B60001F920F920FB60F9211242F933F934F9322
:100B70005F936F937F938F939F93AF93BF93EF9305
:100B8000FF9380E292E00E94EB01FF91EF91BF9111
:100B9000AF919F918F917F916F915F914F913F9115
:100BA0002F910F900FBE0F901F9018951F920F92CC
:100BB0000FB60F9211242F938F939F93EF93FF9370
:100BC000E0913002F09131028081E0913602F091A3
:100BD000370282FD1BC09081809139028F5F8F7335
:100BE00020913A02821741F0E0913902F0E0E05E94
:100BF000FD4F958F80933902FF91EF919F918F91D7
:100C00002F910F900FBE0F901F9018958081F4CFF9
:100C10001F920F920FB60F9211242F933F934F9371
:100C20005F936F937F938F939F93AF93BF93EF9354
:100C3000FF938091B900887F803609F44AC0F0F5AF
:100C4000883209F4A7C018F5803109F49BC0B8F4C4
:100C5000882309F4F9C0883009F494C0FF91EF911A
:100C6000BF91AF919F918F917F916F915F914F91C4
:100C70003F912F910F900FBE0F901F9018958831C4
:100C800009F488C0803251F78093E80114C08034A1
:100C900009F49DC040F48033B9F38833F9F68093AA
:100CA000E80185ECB0C0803509F485C0883509F4C9
:100CB00096C0883499F60E942E05D0CF883909F461
:100CC0008CC038F5883729F050F4883611F0803719
:100CD00029F683E08093E9011092E70157C0883834
:100CE00009F47BC0803919F0803809F0B7CF8091C2
:100CF000E701803208F071C0E091E70181E08E0FDA
:100D00008093E7018091BB00F0E0E953FE4F8083C0
:100D10003DC0803B39F0E0F4803A09F479C0883A6C
:100D200009F09CCF84E08093E9011092C6011092F3
:100D3000C501E0911102F091120209958091C5015F
:100D400081110FC081E08093C5011092A50109C0F7
:100D5000803C09F4A6CF883C09F4A3CF883B09F076
:100D60007DCFE091C60181E08E0F8093C601F0E057
:100D7000EB55FE4F80818093BB009091C60180911E
:100D8000C50129C080910E028093BB0085EC809341
:100D9000BC0064CF90910D0280910C02981758F519
:100DA000E0910D0281E08E0F80930D02F0E0E4519E
:100DB000FE4F8081E9CFE0910D0281E08E0F80939C
:100DC0000D028091BB00F0E0E451FE4F80839091D2
:100DD0000D0280910C029817C8F285E8D8CFE091F7
:100DE0000D0281E08E0F80930D028091BB00F0E038
:100DF000E451FE4F80838091EB0181115CCF81E053
:100E00008093EA0184EA8093BC001092E90126CF26
:100E100085EC8093BC001092E9018091E70180325B
:100E200030F4E091E701F0E0E953FE4F1082609169
:100E3000E70170E0E0910F02F091100287EC91E081
:100E400009951092E7010ACF1092E80134CF1F9262
:100E50000F920FB60F9211242F933F938F939F936E
:100E6000EF93FF9380915C0187FF1FC01092850074
:100E70001092840080915C018F5F80935C0180916F
:100E80005C0187FF04C080915C018C30ACF08091E4
:100E9000840090918500049680349C4990F1809163
:100EA00084009091850004962EC080915C0187FF9C
:100EB000E1CF80915C01DECF2091840030918500EC
:100EC000E0915C018E2FEE0F990BFC01EE0FFF1FDE
:100ED000E80FF91FE85CFE4F81819281820F931F1A
:100EE000909389008093880080915C01FF91EF913D
:100EF0009F918F913F912F910F900FBE0F901F9058
:100F0000189580E49CE990938900809388008FEF86
:100F100080935C01EBCFCF92DF92EF92FF920F9321
:100F20001F93E82FF92F05C001501109210931093C
:100F300061F1908196239417B9F305C0015011090E
:100F40002109310911F1908196239413F7CFC12C17
:100F5000D12CE12CF12C0AC08FEFC81AD80AE80A6C
:100F6000F80A0C151D052E053F0579F080818623B2
:100F7000841791F36C2D7D2D8E2D9F2D1F910F9138
:100F8000FF90EF90DF90CF90089560E070E080E0F8
:100F900090E01F910F91FF90EF90DF90CF90089518
:100FA000E0E2F2E01382128288EE93E0A0E0B0E08B
:100FB00084839583A683B7832CE031E0318320833B
:100FC00025EC30E03587248724EC30E0378726870E
:100FD00020EC30E0318B208B21EC30E0338B228B06
:100FE00022EC30E0358B248B26EC30E0378B268BDF
:100FF000118E128E138E148EEDEBF2E0138212829C
:1010000084839583A683B7838EE191E09183808367
:10101000E9ECF2E01382128280E391E09183808315
:1010200080E2848384E1818784E082871386089547
:10103000789484B5826084BD84B5816084BD85B5B3
:10104000826085BD85B5816085BD80916E008160BF
:1010500080936E0010928100809181008260809365
:101060008100809181008160809381008091800067
:101070008160809380008091B10084608093B10092
:101080008091B00081608093B00080917A0084608C
:1010900080937A0080917A00826080937A008091B8
:1010A0007A00816080937A0080917A0080688093D2
:1010B0007A001092C10060E083E00E94E30061E0EA
:1010C0008BE00E94E30060E08CE00E94E300E0918E
:1010D0003002F091310282E08083E0912C02F091A5
:1010E0002D021082E0912E02F0912F028FEC80836E
:1010F00010923802E0913402F091350286E080834C
:10110000E0913202F0913302808180618083E0912E
:101110003202F0913302808188608083E091320254
:10112000F0913302808180688083E0913202F091F7
:10113000330280818F7D80831092160210921502F7
:1011400010921402109213020E94A1028BE691E009
:1011500090931202809311028CE691E0909310021A
:1011600080930F021092CE028091D302823018F049
:1011700098E09093CE028093D10262E370E080E029
:1011800090E00E9439016091D40289EC92E00E94C3
:10119000660368EE73E080E090E00E94390160E34E
:1011A00089EC92E00E949F04CBE4D6E4CE01019743
:1011B000F1F760E389EC92E00E949F042197F1F738
:1011C00060E389EC92E00E949F0483E592E001973E
:1011D000F1F760E289EC92E00E949F046091CE02F8
:1011E000606240E089EC92E00E94B80484E0809361
:1011F000CF0240E06CE089EC92E00E94B80440E04D
:1012000061E089EC92E00E94B804CBE3DFE1CE011B
:101210000197F1F782E08093D00240E066E089EC2C
:1012200092E00E94B80440E062E089EC92E00E9403
:10123000B8042197F1F788E08093D40260E089EC4C
:1012400092E00E94660360E081E00E94CF04CFE05C
:10125000D0E023E2E22EF12C3AE3C32ED12C49E870
:10126000242E40E0342E5BE3A52E5FE1B52E60E036
:10127000862E60E0962E60E08BE00E94B500CE01E5
:101280000197F1F761E08BE00E94B500C70101977B
:10129000F1F760E08BE00E94B500E6EAF0E06491CF
:1012A000E2E9F0E08491E82FF0E0EE0FFF1FE8594B
:1012B000FF4F8591949100E412E42FE030E0462F37
:1012C0000E948B07611571058105910529F06F5FFB
:1012D0007F4F8F4F9F4F9F70CB01B6010E94EC094B
:1012E000CB010E94240560E085E00E94CF04E1EB81
:1012F000F0E08491EDE9F0E06490F10174907720E2
:1013000009F445C081110E948C00E72DF0E0EE0F3A
:10131000FF1FE859FF4FA591B4918C91682281E09D
:1013200090E009F480E00E94240561E081E00E94E1
:10133000CF04412C512C32014AE0C301B2010E947A
:10134000510468EE73E080E090E00E943901FFEF05
:101350004F1A5F0A6F0A7F0A87E04816510461043A
:10136000710451F740E061E089EC92E00E94B8041A
:10137000C5010197F1F78114910409F47CCF0E9413
:10138000D701882309F477CF0E94000074CF80E052
:1013900090E0C9CFA1E21A2EAA1BBB1BFD010DC014
:1013A000AA1FBB1FEE1FFF1FA217B307E407F50715
:1013B00020F0A21BB30BE40BF50B661F771F881FF1
:1013C000991F1A9469F760957095809590959B0187
:1013D000AC01BD01CF01089597FB072E16F40094D0
:1013E00007D077FD09D00E94000A07FC05D03EF423
:1013F000909581959F4F0895709561957F4F0895C1
:10140000AA1BBB1B51E107C0AA1FBB1FA617B7072A
:1014100010F0A61BB70B881F991F5A95A9F7809546
:101420009095BC01CD010895EE0FFF1F0590F4913A
:08143000E02D0994F894FFCFB0
:101438000000400014005400000000000D026D017F
:101448009A015A02CB01A901BD010000000037032F
:101458000A034E04E0020303F002E1020000000068
:0814680002056D014E044D0464
:00000001FF
